:020000040000fa
:080000000002040000000000f2
:020000040000fa
:0400080042050000ad
:020000040000fa
:04000c0042050000a9
:020000040000fa
:0400100042050000a5
:020000040000fa
:0400140042050000a1
:020000040000fa
:04001800420500009d
:020000040000fa
:04001c004205000099
:020000040000fa
:040020004205000095
:020000040000fa
:040024004205000091
:020000040000fa
:04002800420500008d
:020000040000fa
:04002c004205000089
:020000040000fa
:040030004205000085
:020000040000fa
:040034004205000081
:020000040000fa
:04003800420500007d
:020000040000fa
:04003c004205000079
:020000040000fa
:040040004205000075
:020000040000fa
:040044004205000071
:020000040000fa
:04004800b4040000fc
:020000040000fa
:04004c004205000069
:020000040000fa
:040050004205000065
:020000040000fa
:04005400260500007d
:020000040000fa
:04005800420500005d
:020000040000fa
:04005c000805000093
:020000040000fa
:040060004205000055
:020000040000fa
:040064004205000051
:020000040000fa
:04006800420500004d
:020000040000fa
:04006c004205000049
:020000040000fa
:040070004205000045
:020000040000fa
:040074004205000041
:020000040000fa
:04007800040300007d
:020000040000fa
:04007c004205000039
:020000040000fa
:040080004205000035
:020000040000fa
:040084004205000031
:020000040000fa
:04008800420500002d
:020000040000fa
:04008c004205000029
:020000040000fa
:040090004205000025
:020000040000fa
:040094004205000021
:020000040000fa
:04009800420500001d
:020000040000fa
:04009c004205000019
:020000040000fa
:0400a0004205000015
:020000040000fa
:0400a4004205000011
:020000040000fa
:0400a800420500000d
:020000040000fa
:0400ac004205000009
:020000040000fa
:0400b0004205000005
:020000040000fa
:0400b4004205000001
:020000040000fa
:0400b80042050000fd
:020000040000fa
:0400bc0042050000f9
:020000040000fa
:0400c00042050000f5
:020000040000fa
:0400c40042050000f1
:020000040000fa
:0400c80042050000ed
:020000040000fa
:0400cc0042050000e9
:020000040000fa
:0400d00042050000e5
:020000040000fa
:0400d40042050000e1
:020000040000fa
:0400d80042050000dd
:020000040000fa
:0400dc0042050000d9
:020000040000fa
:0400e00042050000d5
:020000040000fa
:0400e40042050000d1
:020000040000fa
:0400e80042050000cd
:020000040000fa
:0400ec0042050000c9
:020000040000fa
:0400f00042050000c5
:020000040000fa
:0400f40042050000c1
:020000040000fa
:0400f80042050000bd
:020000040000fa
:0400fc0042050000b9
:020000040000fa
:0401000042050000b4
:020000040000fa
:0401040042050000b0
:020000040000fa
:0401080042050000ac
:020000040000fa
:04010c0042050000a8
:020000040000fa
:0401100042050000a4
:020000040000fa
:0401140042050000a0
:020000040000fa
:04011800420500009c
:020000040000fa
:04011c004205000098
:020000040000fa
:040120004205000094
:020000040000fa
:040124004205000090
:020000040000fa
:04012800420500008c
:020000040000fa
:04012c004205000088
:020000040000fa
:040130004205000084
:020000040000fa
:040134004205000080
:020000040000fa
:04013800420500007c
:020000040000fa
:04013c004205000078
:020000040000fa
:040140004205000074
:020000040000fa
:040144004205000070
:020000040000fa
:04014800420500006c
:020000040000fa
:04014c004205000068
:020000040000fa
:040150004205000064
:020000040000fa
:040154004205000060
:020000040000fa
:04015800420500005c
:020000040000fa
:04015c004205000058
:020000040000fa
:040160004205000054
:020000040000fa
:040164004205000050
:020000040000fa
:04016800420500004c
:020000040000fa
:04016c004205000048
:020000040000fa
:040170004205000044
:020000040000fa
:040174004205000040
:020000040000fa
:04017800420500003c
:020000040000fa
:04017c004205000038
:020000040000fa
:040180004205000034
:020000040000fa
:040184004205000030
:020000040000fa
:04018800420500002c
:020000040000fa
:04018c004205000028
:020000040000fa
:040190004205000024
:020000040000fa
:040194004205000020
:020000040000fa
:04019800420500001c
:020000040000fa
:04019c004205000018
:020000040000fa
:0401a0004205000014
:020000040000fa
:0401a4004205000010
:020000040000fa
:0401a800420500000c
:020000040000fa
:0401ac004205000008
:020000040000fa
:0401b0004205000004
:020000040000fa
:0401b4004205000000
:020000040000fa
:0401b80042050000fc
:020000040000fa
:0401bc0042050000f8
:020000040000fa
:0401c00042050000f4
:020000040000fa
:0401c40042050000f0
:020000040000fa
:0401c80042050000ec
:020000040000fa
:0401cc0042050000e8
:020000040000fa
:0401d00042050000e4
:020000040000fa
:0401d40042050000e0
:020000040000fa
:0401d80042050000dc
:020000040000fa
:0401dc0042050000d8
:020000040000fa
:0401e00042050000d4
:020000040000fa
:0401e40042050000d0
:020000040000fa
:0401e80042050000cc
:020000040000fa
:0401ec0042050000c8
:020000040000fa
:0401f00042050000c4
:020000040000fa
:0401f40042050000c0
:020000040000fa
:0401f80042050000bc
:020000040000fa
:0401fc0042050000b8
:020000040000fa
:0402080042050000ab
:020000040000fa
:04020c0042050000a7
:020000040000fa
:0402100042050000a3
:020000040000fa
:04021400420500009f
:020000040000fa
:04021800420500009b
:020000040000fa
:04021c004205000097
:020000040000fa
:040220004205000093
:020000040000fa
:04022400420500008f
:020000040000fa
:04022800420500008b
:020000040000fa
:04022c004205000087
:020000040000fa
:040230004205000083
:020000040000fa
:04023400420500007f
:020000040000fa
:04023800420500007b
:020000040000fa
:04023c004205000077
:020000040000fa
:040240004205000073
:020000040000fa
:04024400420500006f
:020000040000fa
:04024800420500006b
:020000040000fa
:04024c004205000067
:020000040000fa
:040250004205000063
:020000040000fa
:04025400420500005f
:020000040000fa
:04025800420500005b
:020000040000fa
:04025c004205000057
:020000040000fa
:040260004205000053
:020000040000fa
:04026400420500004f
:020000040000fa
:04026800420500004b
:020000040000fa
:04026c004205000047
:020000040000fa
:040270004205000043
:020000040000fa
:04027400420500003f
:020000040000fa
:04027800420500003b
:020000040000fa
:04027c004205000037
:020000040000fa
:040280004205000033
:020000040000fa
:04028400420500002f
:020000040000fa
:04028800420500002b
:020000040000fa
:04028c004205000027
:020000040000fa
:040290004205000023
:020000040000fa
:04029400420500001f
:020000040000fa
:04029800420500001b
:020000040000fa
:04029c004205000017
:020000040000fa
:0402a0004205000013
:020000040000fa
:0402a400420500000f
:020000040000fa
:0402a800420500000b
:020000040000fa
:0402ac004205000007
:020000040000fa
:0402b0004205000003
:020000040000fa
:0402b40042050000ff
:020000040000fa
:0402b80042050000fb
:020000040000fa
:0402bc0042050000f7
:020000040000fa
:0402c00042050000f3
:020000040000fa
:0402c40042050000ef
:020000040000fa
:0402c80042050000eb
:020000040000fa
:0402cc0042050000e7
:020000040000fa
:0402d00042050000e3
:020000040000fa
:0402d40042050000df
:020000040000fa
:0402d80042050000db
:020000040000fa
:0402dc0042050000d7
:020000040000fa
:0402e00042050000d3
:020000040000fa
:0402e40042050000cf
:020000040000fa
:0402e80042050000cb
:020000040000fa
:0402ec0042050000c7
:020000040000fa
:0402f00042050000c3
:020000040000fa
:0402f40042050000bf
:020000040000fa
:0402f80042050000bb
:020000040000fa
:0402fc0042050000b7
:020000040000fa
:0403000042050000b2
:020000040000fa
:0403040042050000ae
:020000040000fa
:0403080042050000aa
:020000040000fa
:04030c0042050000a6
:020000040000fa
:0403100042050000a2
:020000040000fa
:04031400420500009e
:020000040000fa
:04031800420500009a
:020000040000fa
:04031c004205000096
:020000040000fa
:040320004205000092
:020000040000fa
:04032400420500008e
:020000040000fa
:04032800420500008a
:020000040000fa
:04032c004205000086
:020000040000fa
:040330004205000082
:020000040000fa
:04033400420500007e
:020000040000fa
:04033800420500007a
:020000040000fa
:04033c004205000076
:020000040000fa
:040340004205000072
:020000040000fa
:04034400420500006e
:020000040000fa
:04034800420500006a
:020000040000fa
:04034c004205000066
:020000040000fa
:040350004205000062
:020000040000fa
:04035400420500005e
:020000040000fa
:04035800420500005a
:020000040000fa
:04035c004205000056
:020000040000fa
:040360004205000052
:020000040000fa
:04036400420500004e
:020000040000fa
:04036800420500004a
:020000040000fa
:04036c004205000046
:020000040000fa
:040370004205000042
:020000040000fa
:04037400420500003e
:020000040000fa
:04037800420500003a
:020000040000fa
:04037c004205000036
:020000040000fa
:040380004205000032
:020000040000fa
:04038400420500002e
:020000040000fa
:04038800420500002a
:020000040000fa
:04038c004205000026
:020000040000fa
:040390004205000022
:020000040000fa
:04039400420500001e
:020000040000fa
:04039800420500001a
:020000040000fa
:04039c004205000016
:020000040000fa
:0403a0004205000012
:020000040000fa
:0403a400420500000e
:020000040000fa
:0403a800420500000a
:020000040000fa
:0403ac004205000006
:020000040000fa
:0403b0004205000002
:020000040000fa
:0403b40042050000fe
:020000040000fa
:0403b80042050000fa
:020000040000fa
:0403bc0042050000f6
:020000040000fa
:0403c00042050000f2
:020000040000fa
:0403c40042050000ee
:020000040000fa
:0403c80042050000ea
:020000040000fa
:0403cc0042050000e6
:020000040000fa
:0403d00042050000e2
:020000040000fa
:0403d40042050000de
:020000040000fa
:0403d80042050000da
:020000040000fa
:0403dc0042050000d6
:020000040000fa
:0403e00042050000d2
:020000040000fa
:0403e40042050000ce
:020000040000fa
:0403e80042050000ca
:020000040000fa
:0403ec0042050000c6
:020000040000fa
:0403f00042050000c2
:020000040000fa
:0403f40042050000be
:020000040000fa
:0403f80042050000ba
:020000040000fa
:0403fc0042050000b6
:020000040000fa
:10040000ef1322000e7f22000e0188000000000082
:10041000000020000000e000020032000001200087
:100420002002880014000700b90107000000e00066
:1004300003003a00e0ba2900010020000200370062
:100440000000200001002000810f70000100320038
:1004500014000700000020000000e000020032004d
:1004600000000200000000006e8e0200000000008c
:100470000040da000000fe004440a9002066200091
:100480000000e000030032000020200090018800fe
:100490004440a800000006008a1f78008b1f7800e7
:1004a00000000600a1028800800478000000eb0034
:1004b0001f003700e284440054a0b4009905ba003c
:1004c000e284440054a0b4009906ba00e2844400d7
:1004d00054a0b4000006eb00476fde00fd07b20039
:1004e000ae018800636ce10003003a00eaff0700f8
:1004f0000000eb000e003700606ce10008003a00dd
:10050000004deb000a05e800020039003420ec0041
:100510000af0a0008b05e900f9ff3e000400370057
:100520006168e100010032000086eb000b0007006b
:1005300019c7ba001905ba000e04e00003003a001a
:100540000a00e000dbff3a0000000600fe07b200f0
:10055000ae0288008a047800f5ff37000cd0a300b3
:10056000e20f4d001c00390089027800354dba00b9
:100570000a05e800020039003420ec000af0a0006f
:100580008b05e9000f003200254dba000a05e8008e
:10059000020039003420ec000af0a0008b05e900cd
:1005a000080032000c00e0000600320015cdba0051
:1005b0000a05e800020039003420ec000af0a0002f
:1005c0008b05e9008984e80054a0b4000b00e0002a
:1005d000e2ff3a00000006009902ba00055d7800cb
:1005e0008b05e900f7ff3200c82ade00055d7800c0
:1005f0008b05e900f3ff32000c00e000f1ff320050
:1006000019ddba00eeff370000a0fe003600f8004a
:10061000849fbe00869fbe00889fbe008a9fbe004a
:100620008c9fbe008e1f78003200f8003400f80066
:1006300014002000a40188000420200094018800f8
:10064000e88747008680ab00bb0032009680ab0095
:10065000b90032008680a90010c3b3009448070097
:10066000a0ff9f00aff897000180fb000008a300e7
:100670002c00320098c8a80040c2b3008c48070084
:1006800081892000914078000148a30009003a00c8
:100690008080fb000158a3000200320098e8a90006
:1006a000040037000108a3000200320098e8a90006
:1006b0009868a8009888a9001002b20018003a00b3
:1006c000b0c1b3007a480700d1df800001e8a30081
:1006d000020032000028a30002003a000100e000fe
:1006e00001003d00b1a8a80001c8a3000b00320022
:1006f0009228ef0081ff2f009244800082806000ea
:100700000110a000914488000048a30002003200bc
:100710009288a800010037009588a90098e8a800f1
:100720009548a900aff897000180fb000038a300ae
:10073000810032000041eb00e2ff9f0041c0b300a6
:1007400090c3b3002b4807008046eb009648e200b8
:100750000b00350000302000714807000074a10034
:10076000628920001241780001c8b3008140610015
:1007700000c0700096e8b70096e8a8001dc0b3005e
:10078000318a200091407800c1ff9f00a2c8bf00bd
:10079000a348e30005003100318a20009140780031
:1007a0000040e9000140500004003700318a200079
:1007b0009140780081c0ea0000c04000b944800048
:1007c0000974a100894f50005100360096e8a90035
:1007d000a3c8bf008080fb00a28f210009f1780030
:1007e0000040e800a3e8b700a348e20001003a0097
:1007f000a368ef000044eb00aa8f21000ef02f0049
:100800003a0037008944e900e1cf540008003a007b
:100810003c8a20001c4678000080fb003030b0008d
:100820003f4807000c86fb0000757e00070037007c
:100830003c8a20001c4678000080fb000030b0009d
:10084000374807000c86fb0000757e000804e000b6
:100850000d003a00a3c8bf000080fb006a4078008a
:100860000080fb008e8565008b0570006780650049
:10087000e20f500018003a006ff997000200a00044
:10088000e2ff9f0014003700e24f540012003a00cc
:100890006ff897000008a3000f003200b128ab00ea
:1008a00009003200a3c8bf000080fb00a18f210017
:1008b000e1407800a0bf210090cf500002003a0034
:1008c000b1a8a8009b4488004ff99700318a200006
:1008d00082487800110037000844e800a368ec0063
:1008e000a348e20001003a00a368ef000d40440075
:1008f0000904e000c3ff3a00a348e200010032000f
:10090000a3c8bf00a048a8009528a800030037008e
:100910004ff89700a3e8b700a028a80011c0b300c3
:10092000d0c0b300b34707008040eb0090c3b300d2
:10093000b0470700000000008f00b1003400f9004c
:100940003200f9004f0778004f06be004f05be0089
:100950004f04be004f03be004f02be003600f90038
:100960000080fe00004006003600f800809fbe00b8
:10097000821f78003200f8003400f80010002000d8
:10098000a001880000202000900188008500a900b7
:100990000a08ec00504088003328ab000100320008
:1009a0003268a8003308ab000f003a0022418000f3
:1009b000110009000280d8000100e00004003a00a4
:1009c00087c8bf00e14f500001003a003208a8007c
:1009d000104180000a08e30003003a000a28ef00f3
:1009e0003228a8004023a8005044800061448000c1
:1009f00071088800600888003400f9003200f900ae
:100a00004f0178004f00be003600f900004006009c
:100a10003200f8003400f800881f78001800200029
:100a2000a801880008202000980188004f04780061
:100a300085a0a9001003f8001808f90032e8a80002
:100a40003400f9003200f90000400600801f7800f1
:100a50003200f8003400f80010002000a0018800e7
:100a600000202000900188008560a90030118000de
:100a70002fe8b7003400f9003200f9004f00780089
:100a8000004006000040da000000fe00889fbe0023
:100a900080047800a0ea80000000e00004003a0032
:100aa0000e0007000084eb000000e00008003500a5
:100ab000a8ea80000900e0000500320009004400b7
:100ac000060007000000e00001003d000084eb008c
:100ad000080078004f04be00000006008000780087
:100ae0000100e00003003a0060d52100a0ea880080
:100af000000005000080eb00e2132200828f50000e
:100b000002003e00a1ea88000000eb0000000600a1
:100b10000000050003f0a200889fbe008a9fbe006f
:100b20008c1f7800830007008a0033006450e100c6
:100b30004f0032006420e1005200320003826c005a
:100b400007003b000905d0000306d000820f5400c7
:100b50000c065d00020039000200320089017800b5
:100b6000030678008582550004003d000003fd0067
:100b70008103fd008502ea008b854200840f72002c
:100b800002003b0060001000e08018006011b80017
:100b90000005eb007a28e1000a0039000600780021
:100ba000c75ddd00f707b200878075002d003700b4
:100bb000828171000a017800610560008180d100a6
:100bc0000080d3008502e900f9ff3b0006044000e5
:100bd0008784480002003b0060041400e0841c008d
:100be0000988a300070032008a81710082817100a8
:100bf000610164008904d1000884d3008b05e800fa
:100c0000170037000978a30013003a000b00e0003a
:100c1000130034008b05e9000804440089844c006b
:100c20000a4474000978a3000d003a000b00e000ac
:100c3000070034008b05e9000804440089844c0057
:100c400001003a000b0020000978a300f7ff3200f2
:100c50000001eb0002003700828171000a01780078
:100c60000e0007000cf0a70001f0a00042003700c2
:100c70006420e10002003a00838f6c0042003300e0
:100c80000801be000200be003b003700f4ff2f0049
:100c9000740037006011b8008d003700810020001b
:100ca000618055000b003d000b00200061fe2f000d
:100cb0000100e1001d0034008281710061016400c7
:100cc0008904d1000884d3000000e800faff3a004c
:100cd00071002000610064000300700002006000e9
:100ce0000900320061044400e0844c000988a5003a
:100cf000050032008b05e8006808e10002003a00b8
:100d00008904d1000884d300f20f20000258e100ca
:100d100005003d00c75ddd00f907b2008980750060
:100d200008007800000006000bf827008b00780010
:100d3000000005000004be00940007000003be0090
:100d40000405be000200be0090000700844f75003d
:100d5000000006000200be006450e10005003600fd
:100d60006420e100020036000968a30001003a0097
:100d70000800be000160a0004f0678004f05be00cd
:100d80004f04be0000000600f0ff2f00f1ff270017
:100d9000f9ff3700889fbe008a9fbe008c1f780035
:100da000e4ff0700ebff330003866c006450e100b2
:100db000240032006420e100270032006150e1008d
:100dc000220032006120e100210032008b854200c8
:100dd000eb07b1000134b800003ab8000804420043
:100de00089844a00013ab8000030b8008880400089
:100df00009014a00040033000000400081804800df
:100e0000020149008b05e900c909dd00830170007a
:100e10000100320013002000c814de004814dd0079
:100e20004709de001200b200c808de000884700026
:100e30009aff070001f0a1000cf0a70001f0a0004c
:100e4000cdff37006120e100cfff32000801be0076
:100e50000200be00f7ff37006150e100fcff3a00de
:100e6000c9ff3700889fbe008a9fbe00841f78009c
:100e7000b0ff07004f00780011003300f0ff2f0093
:100e8000838f6c0006003b00040565000a00a70084
:100e90000800370009f0a600100020000800370005
:100ea000820f5400838f5c00030039001000200083
:100eb00001003e000000200009f0a7000000ea0049
:100ec0004f05be004f04be000000e0000000060019
:100ed000889fbe008a9fbe000082700004027100dd
:100ee00004827100260032000004be000200be0031
:100ef0006011b8006b092000950220000182cf002c
:100f00000a0039000541b1000082cf000700390016
:100f10000541b1000982cf00040039000541b1004c
:100f20000882cf00010039000541b100054252009e
:100f3000120032000a003b008281710061016400ee
:100f40008100d1000080d3008984d3000884d300bd
:100f50008b05e8000442e800f7ff3a00070037007d
:100f60000804440089844c00000048008180480047
:100f70008b05e9000442e900f9ff3a0047ff07004a
:100f80004f05be004f04be0000000600c70ade0089
:100f9000f107b200f50fb20008003200e1cf4200c5
:100fa000020032000170a00024000500810f7000d3
:100fb000010032000408050044000500810f7000a4
:100fc00002003a00140005008502e900000040001c
:100fd00081c04800fcff3b000170a0002400050018
:100fe000889fbe008a9fbe008c9fbe00c1d3210097
:100ff000e2e980000200e0000b003a00648140005a
:10100000e2e9880032ea8800a100980021ea88001d
:10101000214190000204a000a2409800614190008c
:101020000204a000e2409800670440004244de0051
:101030004244dd0024ea800061d52100e91322004a
:10104000818454002d002000110009008d04d80077
:10105000800678000886e8000c0646008001eb0058
:1010600002003700130020000b027800a44090001b
:101070000108a300020032000a003700120a7800bb
:1010800014017800a24090000108a300fbff320089
:1010900088004200810f5100020039000800e00082
:1010a00042003d00940578000b00a100848f55009c
:1010b000edff3e00e18f5100eaff3a008d0f540032
:1010c00002003600890f5400140039006141b80055
:1010d0006148b900b4ff2f00050020000000520055
:1010e00081805a00800f5100818f59000200350025
:1010f000640544000a00370060d521001a1422005c
:101100000005550008054500110009000985d800b3
:101110000980b90000057800010037000c0578004f
:101120000a00780059fe0700e10f400005003a0070
:10113000640544000a00780054fe0700e10f4000f7
:101140002b00320031ea80008008780031ea80000c
:10115000e481400021419000830f500002003200e2
:101160000204a000010037000204a100a240980080
:10117000640555000a0540000a0878003aea88002c
:10118000c1d32100010d780032ea8000a240900016
:101190000104a00021419800a04090000104a1009a
:1011a000214098008001eb00afff370021ea880062
:1011b000810f5100070036001101be0042ea88008d
:1011c00053ea8800940878000041eb0021ea80008f
:1011d000a240980023ea8000030a7800a44090000f
:1011e0000104a00021429800640042000100370081
:1011f0000000eb004f06be004f05be004f04be00ce
:10120000000006000000e00008003200640050000a
:1012100021ea8000810f50000100310020ea88009f
:10122000a04090000104a1002140980000000600a9
:10123000889fbe008a9fbe000004be000900e00037
:1012400007003a000000eb000800e0003600320022
:1012500008007800ebff07000000eb0032003700c9
:101260000800e00003003a00090078005cff070076
:101270002d003700640054009005780068f897004e
:101280000008a3000200320008007800ddff07001c
:101290000900780052ff0700800478000000eb008e
:1012a0000900e00020003200888f54001b0032004b
:1012b00069bd97000905550042d5de0088855500b7
:1012c000c2ddde000a0178008b0f550001003600f8
:1012d0000b0178004211dd008800780009007800d9
:1012e0002d000700888f54000e0031004255dd00ac
:1012f0000a854400880f55000a003600080455008e
:1013000042c4de004244dd000884440040ea80001c
:1013100051ea8000008cbe0002003700080078000f
:1013200001003700090078004f05be004f04be00e1
:1013300000000600e68747008e1f7800d0bf9f00a0
:10134000e1bf9f000e0037005fba9700144078009d
:10135000efb99700934078000201e900814f5000f7
:10136000040032000080fb008180fb00010050007f
:101370000600370066875700041fe800030fe800e7
:101380000200e000f0ff3a000000eb004f07780099
:101390006f00b100000006008001780002003700f5
:1013a000b15978000201e9000200e000fcff3a00b8
:0413b0000000060033
:020000040000fa
:1013b400546500006d7000006572000061740000e7
:1013c4007572000065200000286800006578000040
:1013d400293a0000200000000d0a00000048000027
:1013e400756d0000696400006974000079200000d4
:1013f4002868000065780000293a000020000000f9
:10140400566f00006c7400006167000065200000e6
:101414002868000065780000293a000020000000d8
:10142400446500007465000063740000696e000088
:10143400672000006c6f000077200000706f0000d0
:1014440077650000720d00000a000000526f000072
:10145400757400006520000052650000706c000087
:10146400792000004f4b00000d0a0000002000000e
:10147400526f000075740000652000005265000082
:10148400706c00007920000046610000696c000067
:10149400656400000d0a0000004e0000756d000038
:1014a40062650000722000006f660000205a000090
:1014b4006967000062650000652000006e65000039
:1014c400747700006f7200006b20000068610000f8
:1014d4007665000020620000656500006e20000053
:1014e400666900006e6400003a20000000500000ad
:1014f400726500007061000072650000206a0000df
:101504006f6900006e200000746f0000206e000000
:1015140065740000776f0000726b00003a200000d1
:1015240030780000004e00006f7400002066000058
:101534006f7500006e640000206400006573000095
:1015440069720000652000006e6500007477000079
:101554006f7200006b200000307800003141000001
:10156400414100000d0a0000004600006f750000b4
:101574006e6400002064000065730000697200005e
:10158400652000006e650000747700006f72000033
:101594006b20000030780000314100004141000020
:1015a4000d0a0000004e000065740000776f000013
:1015b400726b00002873000029200000666f000091
:1015c400756e0000642e0000205400007279000043
:1015d400696e000067200000746f0000206a00003c
:1015e4006f6900006e200000002000007c200000d5
:1015f400004e00006f2000006e650000747700004c
:101604006f7200006b730000206600006f750000ad
:101614006e6400002e2000005472000079690000fe
:101624006e6700002061000067610000696e0000c1
:10163400210d00000a000000204500007272000025
:101644006f72000020660000696e0000646900008b
:101654006e670000206e000065740000776f000064
:10166400726b00002e2000005472000079690000a3
:101674006e6700002061000067610000696e000071
:101684002e2e00002e0d00000a0000004a6f0000fc
:10169400696e0000204f00004b2100000d0a00007d
:1016a400005300007461000074750000733a000078
:1016b400200000002e200000436f0000756c000025
:1016c400642000006e6f0000742000006a6f000048
:1016d400696e000020610000732000006f7200003a
:1016e40070680000616e00002e20000000540000ad
:1016f40072790000696e00006720000061670000d5
:10170400616900006e2100000d0a0000004d000018
:1017140075730000742000007472000079200000ca
:1017240061730000206e000065770000206e0000e9
:101734006f640000652100000d0a0000002e000007
:10174400204300006f7500006c640000206e0000f0
:101754006f740000206a00006f6900006e200000b2
:10176400736500006c65000063740000656400002c
:10177400206e000065740000776f0000726b00003b
:101784003a200000002e000020540000727900006e
:10179400696e0000672000006e6500007874000028
:1017a4002064000069730000636f00007665000028
:1017b40072650000642000006e650000747700000c
:1017c4006f7200006b3a0000200000002e20000021
:1017d400436c0000656100006e6900006e670000e4
:1017e4002075000070200000616e0000642000007d
:1017f4007265000074720000796900006e67000071
:101804002064000069730000636f000076650000c7
:1018140072790000210d00000a000000526f0000e0
:1018240075740000657200002053000074610000ac
:10183400727400006564000021200000456e000001
:10184400616200006c6900006e670000206a00009d
:101854006f6900006e7300002e2e00002e0d000034
:101864000a000000205200006f750000746500003b
:101874007220000073740000617200007420000084
:1018840046610000696c0000656400002e200000c1
:101894005765000020630000616e00006e6f000059
:1018a40074200000726f0000757400006520000051
:1018b40066720000616d0000657300000d0a00008f
:1018c400004a00006f6900006e6900006e67000046
:1018d40020700000657200006d69000074740000df
:1018e40065640000210d00000a000000437500003b
:1018f40072720000656e0000742000004e650000e6
:10190400747700006f7200006b20000041640000d7
:1019140064720000657300007320000069730000a6
:101924003a200000002000004a6f0000696e0000a9
:1019340020700000657200006d6900007373000080
:10194400696f00006e20000046610000696c0000b1
:10195400656400002e20000057650000206300002d
:10196400616e00006e6f000074200000616c000066
:101974006c6f0000772000006a6f0000696e000041
:10198400730d00000a0000004e6f00006465000043
:101994002000000020570000697400006820000047
:1019a4004d410000432000004164000064720000c7
:1019b4006573000073200000002000006a750000b9
:1019c40073740000206a00006f6900006e650000f7
:1019d400642e00000d0a000000570000652000007e
:1019e4006861000076650000206c000065660000f8
:1019f4007420000074680000652000006e6500001b
:101a0400747700006f7200006b0d00000a00000084
:101a1400416e00006f7400006865000072200000d1
:101a24006e6f0000646500002068000061730000b0
:101a3400206c0000656600007420000074680000db
:101a4400652000006e650000747700006f7200006e
:101a54006b0d00000a0000005a6900006742000094
:101a6400656500002053000074610000636b000092
:101a740020680000617300002062000065650000ba
:101a84006e2000007265000073650000740d000094
:101a94000a000000204c0000656100007669000027
:101aa4006e6700002074000068650000205a000082
:101ab4006967000062650000652000006e65000033
:101ac400747700006f7200006b0d00000a000000c4
:101ad40043680000616e0000676500002074000028
:101ae4006f2000006d6f000064650000205300004b
:101af40061760000654500006e65000072670000b5
:101b0400790d00000a00000043680000616e0000c7
:101b140067650000207400006f2000006d6f0000f6
:101b240064650000204100006374000069760000d1
:101b3400650d00000a0000004a750000737400007f
:101b440020730000656e00007420000064610000d2
:101b540074610000206600006f72000020720000b3
:101b6400657100007565000073740000206f00004b
:101b740066200000526f000075740000657200005a
:101b84005f4500004d4200000d0a000000430000c4
:101b9400594300004c4500005f4c000045560000ce
:101ba400454c0000203d000020000000536500006b
:101bb4006e640000696e0000672000006c6f000016
:101bc4006f70000020620000616300006b0d000074
:101bd4000a000000204e00006f6e00002d7300000c
:101be40075700000706f00007274000020430000e4
:101bf4006c750000737400006572000049440000b5
:101c04002e2e00002e0d00000a00000020450000ca
:101c1400727200006f72000020730000656e000095
:101c2400646900006e670000206d000065730000a9
:101c340073610000676500000d0a00000053000096
:101c4400656e0000646900006e670000206d00008e
:101c5400657300007361000067650000204f000099
:101c64004b2100000d0a00000050000065720000c6
:101c7400666f0000726d000020470000726f000064
:101c840075700000204f0000706500007261000054
:101c9400746900006f6e00000d0a0000005400001b
:101ca40072790000696e000067200000746f000004
:101cb400206a00006f6900006e2000006e6500005d
:101cc400747700006f7200006b20000061730000e5
:101cd400206100006e2000006f7200007068000038
:101ce400616e00002e2e00002e0d00000a00000080
:101cf40054720000796900006e67000020740000cf
:101d04006f2000006a6f0000696e0000206e000002
:101d140065740000776f0000726b000020610000a2
:101d240073200000612000006e6500007720000031
:101d34006465000076690000636500002e2e0000d3
:101d44002e0d00000a000000536500006e640000c0
:101d5400696e00006720000077610000726e000069
:101d6400696e0000672000006c6f0000772d000092
:101d7400706f00007765000072200000746f00002f
:101d840020520000450d00000a00000053650000c9
:101d94006e640000696e000067200000706500003a
:101da400726900006f640000206400006174000028
:101db40061200000746f00002052000045200000e4
:101dc4000d0a00000042000061740000206400005d
:101dd40061750000206e000067750000200d000092
:101de4000a000000426100007420000064610000e9
:101df400752000007468000075630000200d000069
:101e04000a000000205500006e680000616e0000aa
:101e1400646c0000656400002070000072690000ba
:101e24006d69000074690000766500000d0a000009
:101e3400004900006e690000742000004861000041
:101e44007264000077610000726500000d0a0000f2
:101e5400005a000069670000626500006520000008
:101e6400496e0000697400000d0a000000000000c3
:101e740000400000ce000000000000007f000000d1
:101e8400000000000000000010c10000000000007d
:101e94000000000000000000000a00000000000034
:101ea4000100000002000000030000000400000024
:101eb40005000000060000002000000021000000d2
:101ec400220000000a0000000080000001800000e1
:101ed40002800000038000000480000005800000f0
:101ee4000680000020800000218000002280000085
:101ef400f000000003010000ffff000000030000e9
:101f040009000000190000000700000000000000a4
:101f140000000000000000000000000000000000bd
:101f240000000000000000000600000005000000a2
:101f3400060000000a0000001a000000080000006b
:101f4400010000000000000000000000000000008c
:101f5400000000000000000000000000000000007d
:101f6400000000000000000000000000000000006d
:101f7400000000000000000000000000000000005d
:101f8400000000000000000000000000000000004d
:101f9400000000000000000000000000000000003d
:101fa400000000000000000000000000000000002d
:101fb4000000000000000000020100000f0f0000fc
:101fc40000050000008000001006000078000000fa
:101fd40000000000b4000000000000002c0100001c
:101fe400000000001c02000000000000fc030000d0
:101ff40000000000bc070000000000003c0f0000cf
:10200400000000003c1e0000000000003c3c0000fa
:10201400000000003c780000000000003cf00000dc
:10202400000000003ce00000010000003cc0000093
:10203400030000003c800000070000003c0000009a
:102044000f0000003031000032330000343500004e
:102054003637000038390000414200004344000094
:1020640045460000020200000203000002a3000033
:042074000400000064
:020000040000fa
:1020780000db8000f007b2000000ea004f00de003d
:10208800000006007248e20021003a00e0bd21008d
:1020980010007800e10060000000eb00380032001a
:1020a80061cf210032c1b300914f110034003e00ce
:1020b80080852100100078006200600005003a0069
:1020c8000180200000b621009080600010002000f0
:1020d8002b0032000000eb00e1ce210042c0b3002b
:1020e800914f110026003e00e980400052c0b30025
:1020f800914f110022003e000000210001b621008e
:10210800110060000000e9004f00de001c003700ed
:102118000000eb0061cf210032c1b300914f1100e4
:1021280017003e00808521001000780062006000e2
:1021380005003a000180200000b621009080600070
:10214800100020000e0032000000eb00e1ce21005c
:1021580042c0b300914f110009003e00e9804000e1
:1021680052c0b300914f110005003e00000021004d
:1021780001b62100110060000000e9004f00de00f8
:1021880000000600889fbe008a1f78004c08f800ef
:102198005008f9000044eb0069ce21000a20200015
:1021a80022c1b3008142800080cd2100cf420700c8
:1021b8001900650005003200200120005028b400f5
:1021c8000844e800f94f5400f5ff3a000840780049
:1021d8004f0578004f04be00000006000400fa0016
:1021e800889fbe008a1f78008004780020db80006a
:1021f8000000e0000c00320040b6210018c0b30017
:10220800030037000844e800e74f5400300032006c
:102218005000e000fbff3a000040eb00e74f54009d
:1022280002003a002b0037000044eb000885fb0051
:1022380000c3b3005e460700800078000a80e8000b
:102248000000400002b62100013178000040eb0098
:102258000100e0001f003200884c78000a85e80081
:102268000a0545008204780069007d0080c0eb0003
:102278004148980069047d006a8057003c46070081
:102288003fb89700cfb8970070049800010c9800e9
:10229800100c9800210c980069017d00b20890008c
:1022a80000fd2f00008060000010a0003009980099
:1022b80076004100f202b00031c0b3000168780036
:1022c800820f5000fdff3a0010c0b3000100370034
:1022d8000040eb004f0578004f04be000080fa0074
:1022e80000000600e6874700889fbe008a9fbe0060
:1022f8008c9fbe008e1f78000006780001077800ca
:102308008206780091428000a142880062c0b30032
:10231800a0cf2100754207000c057800d0e78000a7
:102328000044eb008c0f500066003a002300370091
:102338000844e800a1428000e6804000a1428800ed
:102348000b4178000900780068420700f04f5400fc
:1023580004003200990f1500f5ff3a00f04f5400c1
:1023680016003a0091428000a142880062c0b30082
:10237800a0cf21005d420700e0e780000044eb00a9
:10238800e30f500045003a000c0037000844e8000d
:10239800a1428000e6804000a142880062c0b300ec
:1023a8000a00780051420700f04f54000300320041
:1023b80030002000990f1000f4ff3a00884e780092
:1023c8000044eb007608e2000a00320018c0b300af
:1023d8007808e2000700320028c0b3007a08e2005b
:1023e8000400320048c0b3007c08e20001003a0053
:1023f80038c0b300084f78000884fb0040c1b30020
:10240800eb450700880044006287200000b178008f
:102418000045eb000000e00019003200a1cf2100c8
:102428008c0878001a002000eae7880062c0b30030
:10243800a042800061420700080444006987200028
:10244800888444001904780000c0eb000054980008
:1024580072805700c64507007fb097008fb8970075
:10246800008cbe00190078009d4678002d50980019
:102478008000eb006100980000b621001010a00059
:102488000a4078004f0778004f06be004f05be008f
:102498004f04be006f00b10000000600a14280009a
:1024a800e6804000a142880062c0b300a0cf2100ae
:1024b8000e42070018c0b300c9cf21000985e90002
:1024c800bbff3700a1428000e6804000a14288009f
:1024d80062c0b300a0cf21000442070018c0b300b7
:1024e800a9cf21006bc0b3009aff37008040780065
:1024f800d0082000e2cf50000f00320007003e0055
:10250800d04321000104e0000b003200d035200048
:10251800e1cf500007003a000700370050012000c3
:10252800e3cf50000400320010002000e4cf500038
:10253800010032000000eb0000000600889fbe008a
:102548008a9fbe008c9fbe008004780081067800b8
:10255800020678005208f8005408f9000044eb001d
:102568001ac0b3008845780062c0b300a142800059
:10257800a0cf2100dd4107008a407800d0e7800025
:10258800890f5000040032000844e8006000200071
:102598005428b4008b407800ef4f540003003e00ed
:1025a8000104e000f0ff320003003700014078002a
:1025b8000104e00006003200f0e78000800e780099
:1025c800e0e78000004e7800014078000200370004
:1025d80031c0b300014e78004f06be004f05be0063
:1025e8004f04be0000000600889fbe008a9fbe0000
:1025f8008c9fbe00830578004387200068834100d4
:102608000045eb0018c0b300d30278000500e000d5
:10261800090032000004e0000a003200e54b900097
:1026280081cf530007003a00c5029000828f520004
:1026380004003a000200370008457800010037001e
:1026480008457800868f5100efff3a000a4078006d
:1026580089c0b3000404e00001003d0009c1b300d3
:102668000004e0001b0032005208f8005408f9008a
:102678000045eb000904e000160032000a44780027
:102688001dc0b300cccf210062c0b300a1428000be
:10269800a0cf210095410700d0e780008b0f5000a4
:1026a80004003200300020009c0f100004003a00a3
:1026b800020037000d457800010037000d4578000d
:1026c8000844e800600020005428b40088cf540073
:1026d800edff3e000a4078004f06be004f05be00e1
:1026e8004f04be0000000600889fbe000004be0024
:1026f80010c0b3000204e0000a0032000040eb0002
:10270800890f5400070031000240e90077ff0700f5
:102718000804400010c0b300890f540001003e00b7
:102728000040eb004f04be0000000600889fbe007a
:102738008a9fbe008c1f7800004678000004eb00da
:102748008044eb000ace21000b8621006142800004
:10275800810044008142880022c1b30080cd21005d
:10276800624107001a0078009b0f50000b003a00e6
:102778000c86fb000c86e8000c06460000b621001b
:1027880060007e008984fb00890440007950900035
:102798000004a100f0549800040037008944e800c0
:1027a80072044400f9cf5400e8ff3a004f0678005d
:1027b8004f05be004f04be00000006007448ec0040
:1027c80074e8b70002003a0010c0b30074e8b7001c
:1027d80074c8bf0000000600889fbe008a1f7800ea
:1027e800a0a8a9006000b80020e7880031e78800a9
:1027f8004c08f8005008f9000044eb0029c1b30068
:102808008acd2100094178008a0078008042800042
:102818006a4107000844e800200120005028b4005d
:10282800f94f5400f7ff3a000040eb00c1ce2100f9
:102838008048780092c1b3008100e800824878009f
:10284800e9804000804878008100e80080487800ee
:102858000100e8001000a100ed805000c0532a00dc
:102868008008780002c1b30070428000534107001d
:102878004f0578004f04be0000000600889fbe0088
:102888008a1f780030002000e0e788000080eb0015
:10289800d0e788005208f8005408f90008c1b300ce
:1028a80069c0b300aacf2100094178008a007800e6
:1028b800a042800041410700600020005428b40075
:1028c8000844e900f8ff3a004f0578004f04be00bd
:1028d8000000060080852100904078000040eb0051
:1028e8000104e00006003200808521000148e9006b
:1028f8008080e80011017800124078008208e80022
:10290800000006000600fa00889fbe008a9fbe00ed
:102918008c9fbe000044780001457800c0db800031
:102928000000e0000c00320080b7210019c0b3009d
:10293800030037008944e800e6cf5400450132001f
:102948005000e000fbff3a0040002000e6cf5400b2
:1029580002003a00400137008044eb008984fb0004
:10296800c0c0b30092440700800078006c80440027
:102978000000400002b6210001317800400020002c
:102988000100e000340132000804e0005e0032007b
:10299800c0df8000a00098006c8044000000400068
:1029a800820078006101780043c3800033019800f9
:1029b8006101780074c8b300c5892000154242003f
:1029c800d389200093417800834152002341980025
:1029d8006100780020409000754407000000e00086
:1029e80009003a00ec8444008984440008b62100b8
:1029f80068807c007144070009044400000ceb0067
:102a08004000200014013700ec8044008180400021
:102a180002b62100e2807800800878000a85fb0071
:102a28004655dd00000178000a34a0000a597800f4
:102a3800918521009140780001d9400081862100cc
:102a4800115978008100e8001159780081bf2100f0
:102a5800115978008100e800115978000186210099
:102a6800114678000c597800f2804000115978001e
:102a7800d189200091407800e3c7b30083cf50008c
:102a88000c003e0068004000a48721008140e80057
:102a9800d6892000014b78008180fb0064d878003b
:102aa80000017800d18920009140780083cf500040
:102ab800f6ff36009cc8bf008040e900014278005c
:102ac800c3892000844978000004e00058003200df
:102ad80002007800a4872100824050008180fb001a
:102ae80064d87800c1892000914078008141e900cc
:102af80003437800c5892000864a78000104e00075
:102b0800f5ff3a004a003700a2852100120078003c
:102b18006402500003c38000a30098006c80440046
:102b28000000400001b62100e10278000402e9003b
:102b3800040978008401780023437800f64298005d
:102b4800e10278000309780093417800e342980095
:102b5800630952008281e90013427800684142000b
:102b680082497800e1017800a2419800610078006c
:102b7800204090000e440700000478000800e000a0
:102b880009003a00ec8444008984440008b6210016
:102b980068807c000944070009044400000ceb002d
:102ba80040002000ac0037006c804400000040006a
:102bb80001b62100610078000808780045ff070089
:102bc800f043b2000a85fb004655dd000a4c700050
:102bd80040ff0700006c78003eff0700006c78009b
:102be8003cff0700006c78003aff0700006c780093
:102bf80038ff0700006c780036ff07000046e90040
:102c08000c6c780033ff0700006c78008085210089
:102c18001004e000060032000804e800000578000f
:102c28002cff0700005c78001a04e000fcff3a0063
:102c3800ec8544008b8545000ab621006a847d0036
:102c480070805700ca4307000fb897009fb89700d5
:102c580040049800510498006a807d00300090007c
:102c680071815700f28057009efd07000004e000c4
:102c78000a003a000a04be0068807c001000780050
:102c8800ce43070068807c00cc4307000904440059
:102c9800000ceb00400020006f003700a008a900de
:102ca800f0c7b3009de8b7009c68ef00efe8970015
:102cb8000180fb000000400061872000610478006b
:102cc800e0c0b300ba430700600498000000e000c9
:102cd8001e003a0010002000e0e7880062c0b30040
:102ce800a1cf2100a042800034400700688720005f
:102cf8006fe997000280fb00000040006800780040
:102d0800ae430700efe997000380fb000000400096
:102d1800000444000005eb000a0c7800ec84440031
:102d28008984440008b6210068807c00100078007f
:102d3800a243070068807c00a04307000904440000
:102d48000a0c780040002000430037006d872000ff
:102d58006fea97008480fb0081804000ed80780056
:102d680072b7210092427800e54898008bbf210095
:102d78001b037800c60098000045eb00fa4898004d
:102d8800110a9000f38f2f008301620003a0a000b6
:102d980003b0a1009308980011c0b300014878005f
:102da8000004780000c8b300006c78001240780076
:102db800006c78000049e800ec84440089844400f1
:102dc80077005100e0807c00e1409000016c7800c1
:102dd80060807c0070409000006c78000a6c78007d
:102de80076fe0700006c7800080078000c68780010
:102df8008b00e800116878001b68780000e8eb0099
:102e0800c1cfb300016878000a68780091c0b300a8
:102e1800114098007080570055430700efe897006d
:102e28000180fb00000040006d007800d21f2c00dc
:102e3800f3ff2f000fba97009fba970004014100d3
:102e48008581490022009800330098001000200076
:102e580001003700400020004f06be004f05be00ad
:102e68004f04be000080fa0000000600889fbe00e4
:102e78008a9fbe00800578004c08f8005008f900c9
:102e88000044eb0069ce21000a20200022c1b300d3
:102e98008142800080cd2100943f07001900650021
:102ea800060032008200200081cd21000b0078004e
:102eb8001ef907000000e000050032000844e800a1
:102ec800200120005028b400f94f5400efff3a00c9
:102ed800084078004f05be004f04be000000060001
:102ee800889fbe008a9fbe00000578004c08f80045
:102ef8005008f9000044eb0069ce2100e685540033
:102f080022c1b3008142800080cd2100773f0700b5
:102f18000020200019006000020032009b0f1500fd
:102f2800050032000844e800200120005028b400c1
:102f3800f94f5400f2ff3a00084078004f05be00f0
:102f48004f04be0000000600889fbe008a9fbe0096
:102f58008c9fbe008e1f780000067800010778005d
:102f68004c08f8005008f9000044eb0089cd210016
:102f78006e8544000b202000e886440022c1b3007f
:102f88008142800009007800583f07001a806500d8
:102f9800050032009d0f160003003a0020ce2100e4
:102fa800900f1700050032000844e80020012000b7
:102fb8005028b400f94f5400f0ff3a000840780058
:102fc8004f0778004f06be004f05be004f04be00f5
:102fd800000006000800fa00e880570042032900b4
:102fe80007000900b258780082002000e8805700e6
:102ff800cef8070000f0a7000000ea000000e90092
:103008004f00de000080fa0000000600889fbe0026
:103018008a9fbe008c1f78004c08f8005008f90001
:103028000044eb0069ce21000a0c20000986e90063
:10303800cbce210022c1b3008142800080cd210087
:103048002a3f0700190078000098a3000d003200fd
:103058000a00600001042000810f500009003200be
:103068000000e00007003200000eeb003c1678007c
:103078009b4de90022c1b30081cd21008042800030
:103088004e3f07000844e800200120005028b40003
:10309800f94f5400e7ff3a0002c1b300a1ce210066
:1030a80070428000453f07004f0678004f05be007c
:1030b8004f04be0000000600a008a80023c0b3000b
:1030c800e28521000349780062bf210012027800de
:1030d800e4c28800c4df800004c38800f4852100ae
:1030e800034a78001201780082c3880040c3880030
:1030f80022bf21001241780082487800f300420084
:1031080082487800f78050008048eb00e10f4000cb
:103118000b0032008100e9001180a00070ff070059
:10312800f94f5000060032000010200061ce210047
:103138001100600002003a00a085210010a0a00044
:1031480011c0b300a08521000148780000000600e6
:103158000200fa00889fbe008a9fbe0082047800a1
:10316800804578004805de00e4cf500013003200a7
:103178008180fb00818040006087200060807800ab
:103188002050900062c0b3000440bc00934280000d
:1031980083004100a142880062c0b300a0cf210093
:1031a800d23e0700c0cf21000008eb0062c0b30088
:1031b8008080e900a0428000003f07009cc8bf0053
:1031c8008080fb00a887210022c0b30002f47800a9
:1031d8000040e8008080fb001941900002f478006c
:1031e8000040e8008080fb002941900002f478004c
:1031f8000040e8008080fb000bf478000040e80005
:103208008080fb000af478000040e8008080fb0022
:103218004941900002f478000040e8008080fb00fb
:103228005941900002f478000040e8008080fb00db
:10323800e944900009f478000040e8009ce8b700f1
:10324800d9892000994478005cfd07008980fb003b
:1032580000f478000940e9008080fb00a2c0b300b8
:1032680002f478000040e9008080fb0092bf210052
:103278001241780002f478000040e9008080fb00e9
:1032880082bf21001241780002f478000040e90072
:103298008080fb000af478000040e9008080fb0091
:1032a8000bf478000040e9008080fb000041eb004f
:1032b80002f478000040e9008080fb0092c0b3006f
:1032c80002f478000040e9009de8b700ea80570062
:1032d80000c3800078ff07004f05be004f04be0002
:1032e8000080fa0000000600e4874700889fbe00bf
:1032f8008a9fbe008c9fbe008e1f78000006780053
:1033080081bf9f004c08f8005008f90098c1b3002d
:1033180069ce21000a2c20000b242000e6865400e8
:10332800eece210022c1b3008142800080cd210071
:103338006e3e0700190065008b0f50000d003a0023
:103348009d0f5600060032001e41e8008c007800f0
:103358001d007800e4fc07000004e00005003200ce
:1033680001e780000fb897000108780010c0b3008b
:1033780009003700200120005028b4000844e90063
:10338800e8ff3a000a00370081df80000fb8970095
:103398000108780010c0b3004f0778004f06be0040
:1033a8004f05be004f04be004f00b10000000600ec
:1033b800e0ce2100104178008c007800c0df80004a
:1033c800c9fc07000004e000efff32000040eb00fa
:1033d800f1ff37000200fa00889fbe008a9fbe00f6
:1033e800804578000104780002457800830478005d
:1033f80008007800bafe0700f94f50000b003200b1
:10340800000c200061ce21001100600001042000a2
:10341800810f5000020032000000e00003003a0073
:10342800880c78000000eb002800370004c8b300bf
:1034380088017800c2df80008040eb0001407800fe
:1034480069fc07000004e00016003200e24f550056
:1034580004003a0011c0b3000b40780029fd0700b2
:103468001a0037006a8157000800be0033fc0700c5
:103478000004e000050032000000eb00eff09700c8
:103488000104e00007003a0010003700e14f550042
:1034980004003a0011c0b3000b40780019fd070082
:1034a8000a0037000800be008fff07008040780040
:1034b8000000eb000104e00004003a0011cdb30065
:1034c8008085210001487800200020004f05be00bb
:1034d8004f04be000080fa00000006000004e0006f
:1034e8002a003200f0bd21000048eb0011c2b300f1
:1034f8000000e80001487800e0ce21001040780084
:10350800310020008100dd0012be21000149780051
:1035180062cf210033c1b30092cf11001b003e00df
:103528006a01510083c1b30092cf110017003e0019
:103538000280200003b621001301610005003a0053
:10354800e44f500003003e0010be21000174a000ab
:1035580001487800e0ce210041c0b30090cf1000b0
:103568000a003e006900400053c0b30090cf11002c
:1035780006003e000000210001b621001100600095
:1035880002003a0010be21001024a000000006002e
:1035980031e7800001007800000cb200020420002e
:1035a800820f50000a003a0060cf21001048e9005d
:1035b8000103b200f08f500002003a000000e8005a
:1035c8001048e90010c0b300c4ff07000500370029
:1035d8000000e00003003a0091c1b300d0ce210002
:1035e800014878006000b80020e7880031e78800cb
:1035f80022c1b30081cd210080428000ef3d070049
:10360800c0ce21001048e90002c1b3008080e90063
:1036180070428000e93d0700000006000086210096
:103628001001be00c2e68800d3e6880020019000a1
:10363800b0019000e2e68800f3e68800b3df80007e
:1036480013e7880080ce210000c8eb0080852100a8
:1036580010007800620060000f003a0060ce210080
:10366800f1fc2f00908060000150a0000108780054
:1036780020cf21009000780001e788008100e80051
:1036880001087800e28f400017003a0000b62100d8
:1036980010b0a0001400370060ce2100f1fc2f000c
:1036a800908060000140a0000108780040cf210010
:1036b8001001780002e78800e30040009148e80024
:1036c80082e7800090004100010878006611b90087
:1036d80080bf210010014100828f50000200360097
:1036e80000b6210010c0a00060ce2100c1c2800039
:1036f800c508dd000110b200100178000280a100a9
:1037080082807000f2f32f00828060000124b300f1
:103718000108780022c1b300ee005000804280000a
:10372800a63d070060cf21001048e8006a0050005d
:103738001048e80002c1b3008080e90070428000b0
:103748009e3d070010c0b30064ff0700000006009c
:10375800889fbe008a9fbe008c1f78008044780036
:103768003008800074e8b700a068ef0000b62100b8
:10377800100178000008eb003010780001002200ea
:10378800810061001001780002d0a10001087100d9
:10379800d0b02100c2042000000141008040eb00ad
:1037a800014878000080e800820f5000fcff3a00d2
:1037b8000904e00004003a00f0dc80000000e000aa
:1037c80001003200fd400700e0b921000008eb00cd
:1037d80068fc2f00000444006e0544008005eb00df
:1037e8000904e00007003a00180078000000e00033
:1037f8000400320010007800f0400700180078003c
:10380800ee4007000b1c78008a0f5400f4ff3a00c2
:1038180088b721006c0544008005eb000904e0002e
:1038280007003a00180078000000e00004003200a9
:1038380010007800e140070018007800df4007001a
:103848000b1c78008a0f5400f4ff3a0068872000a8
:10385800680544008005eb000904e00004003a0014
:10386800180078000000e00001003200d340070093
:103878000b1c78008a0f5400f7ff3a00fffb070083
:103888004f0678004f05be004f04be00000006003a
:103898002f03b000889fbe008a9fbe008c9fbe0089
:1038a8008e1f780000047800a0fd2f000f00400054
:1038b800af4007005fa89700efa89700f0b79f00f8
:1038c80081bf9f0000b621001000780064006000ee
:1038d8001100320020b721007fb297008fba9700fd
:1038e80030015200a0815a00640040001082fb00a1
:1038f8008002eb0040422f000020b800800f5100ea
:10390800818f590004003600e0bd21001000a1009d
:1039180000b621001020a1000800e0007a043a0057
:103928000000eb00a008ab0032123a0000b62100fc
:103938001000780061006000470132002cb62100b9
:103948008006eb00ddb79f000c86e800ecb79f000f
:103958001c0578000a00e0002c0132007fb09700b7
:103968008fb89700b0b79f00c1b79f001a0c90009e
:10397800aa0c900008045000898458000800be0072
:10398800c2f4070002a02b00b3752400bdf40700a1
:103998000000e000080034001a00780087400700a3
:1039a800efb1970013007800844007006fb29700ca
:1039b800000aeb0015013700ba0890000158a3006f
:1039c80012013a000e20a1000e10a100ca4d90006d
:1039d800f9cf550050003200e1cf450017003a00fa
:1039e8007a0090008a0890003fb39700cfb3970001
:1039f8000000530081805b0017302500870f5000be
:103a0800e08f5800400036000080eb00a0a79f0020
:103a18000e20a0000e10a000a0fd2f000f004000f7
:103a2800534007005fa89700efa89700100d980073
:103a3800210d98008045eb00330037006fb49700e4
:103a48000b40780022c1b3000440bc0060428000f3
:103a5800800041008142880022c1b30080cd21004e
:103a6800a23c070061ce2100110078000098a30055
:103a780005003a000b80fb00180040008040eb0076
:103a8800715098001b0037009800780041019000a1
:103a9800e40f410009003200e30f410002003a0040
:103aa8000088a3000500320003ce2100130178002e
:103ab800b1019000830f510005003a000b80fb0014
:103ac800808040000040eb00f0509800090037006b
:103ad8000088a30007003a00a2a79f000e20a000bc
:103ae8000b80fb0080804000715090000004a10012
:103af800f05098008b45e8000e28a30002003a0019
:103b0800f8cf5500ceff3600efb2970015007800c9
:103b18004b489800330037000e00a000868521002e
:103b2800004beb00ba0990000000eb0012c0b30094
:103b38000388a300040032000a0037000241e800ad
:103b4800f94f5100250032000000e80080014500cf
:103b5800f35190000308a300f8ff3200f94f510019
:103b68001e00320000cfb30087852100804b78000b
:103b7800ef8060001900320030422f000100200061
:103b8800800f5400818f5c00130036000e00a100e6
:103b98000080eb00a0a79f000e20a0003a0890002c
:103ba800ef404000ef80600002ff2f00020060003d
:103bb80000807000300d9800a0fd2f000f0040001d
:103bc800eb3f07005fa99700efa99700120d980037
:103bd800230d9800010037000e00a1000e08a30075
:103be80025003a000e4078000e0278000428a30051
:103bf80086003200dfb4970068c2b3000018a30043
:103c08002d0032000980e8000000400001b62100c4
:103c180061007800b000900080bf2100908f5000b4
:103c280025003a00d0b021000044eb001004e00069
:103c380006003a00200037000844e8000080e80049
:103c4800814f540004003a0008003700f0b021000a
:103c580018c0b30061c2b3001004e000f6ff3a00d8
:103c680060c2b300804f540013003a0011cfb30074
:103c78008085210001487800dfb297000580e800c0
:103c88000000400001b62100610078002187210072
:103c98003043900086487800b00890000150a0009a
:103ca800310898000000eb000148a30051113200d0
:103cb800400320004f113700d1892000914078003f
:103cc8000980e8000000400002b621006201780087
:103cd8008181fb00a0872100b243900007f07900a2
:103ce8008140e9008181fb004242900004f07900a4
:103cf8008140e9008181fb00f242900005f07900e3
:103d08008140e9008181fb006243900006f0790060
:103d18008140e9008181fb00924b900007f0790017
:103d28008140e9008181fb00024a900004f079009b
:103d38008140e9008181fb00a24a900005f07900ea
:103d48008140e9008181fb00324b900006f0790048
:103d58008140e900014078009de8b7008040eb0011
:103d6800a1c79f0012027800224090000004e000e2
:103d78001000320004007800a5872100c1892000c6
:103d8800914078008181fb003043780086f2790009
:103d98008140e80081417800c7892000834b780082
:103da80084405000a1c79f00a241900081cf5100dc
:103db800f2ff3e0021fc2f008f8040002fa09700cb
:103dc800bdfc07000001200061c2b300814f540010
:103dd800081132000884fb0008044400c0b0210028
:103de8002fc2970004707c008984e800898444000d
:103df80000b62100e0807c00d0b02100b1409000e6
:103e080001707c0000012000fa1037008d06e800e0
:103e1800e78f5600cbfe3a0020db80000000e00070
:103e2800050032000c0037000040e800e74f500062
:103e380003003a000600370041b6210010c0b30065
:103e48005100e000f8ff3200e74f500002003a004e
:103e580000b621001000a10000b621001000780073
:103e680062006000f60132007fb297008fba9700b7
:103e780048872000880178008000eb002ce02300b0
:103e88000d002000080078000404be0080057800ba
:103e980001057800530078000000e000600032005f
:103ea800600190000200e0005d003200900a90007e
:103eb80005b8a30008003a0020039000b003900062
:103ec8000603540087835c008c0f53008d8f5b00c2
:103ed800530036000b00370020039000b003900019
:103ee8000603540087835c0034602a000500200024
:103ef800840f5300858f5b004900360082017800eb
:103f080001003700820178008042eb00a5c79f00be
:103f18008303780066834100a5872100c1892000ba
:103f2800914078000182fb003244780088727a0060
:103f38008140e80001447800c4892000084a7800dc
:103f480087405100a1c79f00860f5100f3ff3a0038
:103f5800e68141000041eb00a2c79f008240780043
:103f6800a5872100d2892000124178000282fb0037
:103f78003343780086727a000241e90002447800ef
:103f8800d7892000884b78008140e800a1c79f00ae
:103f9800e8cf5000f3ff3a009008900001b0a1006c
:103fa8004809de0067414100670161004811dd00f2
:103fb800f38f2f0083806000810071001108980042
:103fc8007fb197008fb997002200980033009800be
:103fd8000a00450061872000610078001009900000
:103fe800017020008100610007003a006000900025
:103ff800f23e07000a0545006087200060007d004a
:104008008000eb006100980021fc2f008f804000a9
:104018000080eb0028fc0700000120007510370025
:104028008100e800e48f500099ff3a000b04780003
:10403800cb8720008c9628009d002000cecf210041
:104048000884e80088047800180078000000e00080
:10405800210032007fb297008fba970030015200da
:10406800a0815a008c0f51008d8f59001a0036001c
:104078002050900062c0b3000440bc009142800010
:1040880081004100a142880062c0b300a0cf210096
:10409800163b0700150020009e8f120006003a000c
:1040a80020002000000f780062c0b300a1cf2100db
:1040b800a0428000413b0700190078006000900092
:1040c8000000e00001003200bc3e07001900780043
:1040d800ba3e0700800ceb008b0f5400d8ff3a0063
:1040e8000043eb00a6c79f000640780008b62100f1
:1040f8000080fb006c004000000040006800780071
:104108000000e0000c0132003000900062fc2f003b
:104118000f01410041fc2f008f80400007f9070084
:104128000004e000850032006fc097000004e00042
:1041380076003a00afc397000780fb006c00400090
:104148000000400001b62100e1017800a3009000c2
:104158000044eb0080bf2100908f50002d003a00f2
:10416800d0b021001004e00006003a002900370012
:104178000844e8000080e800814f540004003a0039
:1041880008003700f0b0210018c0b30061c2b300c6
:104198001004e000f6ff3a0060c2b300804f5400fc
:1041a8001c003a009300780020872100f14090001d
:1041b8000148780011cfb3007a0050000148780018
:1041c800130078007d3e07002fc497000880fb008d
:1041d8006c0040000000400008b62100680078002c
:1041e800763e0700afc097000180fb006c004000de
:1041f8000000400000044400000ceb00a008a900e7
:10420800f0c7b3009de8b7009c68ef0040032000aa
:10421800f80f3700130278000040eb00b0c79f008a
:10422800234090000004e0001000320004007800f1
:10423800a5872100c1892000914078000181fb00f9
:1042480030437800867279008140e80001417800a7
:10425800c7892000824b780084405000b1c79f0076
:1042680023419000814f5100f2ff3e0031fc2f00a6
:104278008f8040002fa097008ffb0700afc19700e9
:104288000380fb006c0040000000400001b62100e4
:10429800610078002001900081bf2100910f51003a
:1042a80009003a000884fb0008044400c1b021005a
:1042b8003fc2970084707c00100178008100e800fc
:1042c8007241900082707c00100078003b3e07002d
:1042d800afc297000580fb006c0040000000400062
:1042e80008b6210068007800343e07002fc3970005
:1042f8000680fb006c004000000040000004440001
:10430800000ceb0000012000ba0f3700e24f50000c
:1043180089003a00afc397000780fb006c0040009b
:104328000000400001b6210061007800a000900064
:1043380080bf2100908f500020003a002fc49700c2
:104348000880fb006c0040000000400008b6210017
:1043580068007800100178002187210072419000e0
:1043680082487800fa8050008048eb0010007800fe
:10437800123e0700afc097000180fb006c004000b0
:1043880000004000680078000c3e07002fc197002d
:104398000280fb006c004000000040000004440064
:1043a800000ceb00a008a900f0c7b3009de8b70017
:1043b8009c68ef00400320008e0f3700d88920004a
:1043c80018447800fdf807008880fb00a2872100c8
:1043d80000f178008841e9000380fb00a1c0b30028
:1043e800017178008341e9000380fb0091bf21003f
:1043f800117178008341e9000380fb0081bf21002f
:10440800117178008341e90021fc2f008f80400062
:104418003180fb006c0040000000400008b621001d
:10442800680078000382fb00d042900005717a0092
:104438008341e9000382fb004043900006717a0043
:104448008341e9008382fb000042eb0004f17a001b
:104458008341e9008382fb0096c0b30006f17a002d
:104468008341e90083427800d7892000854b780092
:10447800c3892000934178008382fb0036c0b300d3
:1044880006f17a008341e8008382fb0004f17a0098
:104498008341e8000382fb006043900006717a00c4
:1044a8008341e8000382fb00f043900007717a0023
:1044b8008341e80003427800c2892000044978005b
:1044c80020009000fcfa0700afc297000580fb00af
:1044d8006c00400000004000680078001000780080
:1044e800b63d07002fc397000680fb006c00400014
:1044f80000004000680078000005eb000a0878001a
:10450800afc397000780fb006c004000000040002c
:1045180068007800a93d0700afc097000180fb0044
:104528006c00400000004000000444000a0c7800c1
:10453800000120002f0f37002fc197000240e8002c
:10454800a0c79f00e54f5000e9fe36008041eb0010
:10455800a3c79f005208f8005408f900a8cf21000b
:104568000885e80062c0b300a14280000800780016
:10457800de390700240020009a0f12000c003a00d0
:1045880030002000e0e78800a1cf21008088eb0000
:1045980062c0b300a0428000083a070021c0b300ff
:1045a800808521000148780030072000110f37006e
:1045b800afc297008540e800a1c79f0060002000b7
:1045c8005428b400efcf5000e6ff36000043eb005c
:1045d800a6c79f00c0db80000000e000340f320057
:1045e800170037000040e800e64f50000600320090
:1045f800004178005100e000faff3200a2c79f0096
:10460800e64f50000e003a008043eb00a7c79f001a
:104618007608e2001e0f32000900370040c0b300e0
:10462800a0c79f0000b621001010a10004003700a9
:1046380010c0b3000100370020c0b300a0c79f001e
:1046480001db80000100e00010003d0060bb21009c
:104658007fb297008fba970030015200a0815a00ac
:1046680005802700850f5100e08f590007003600ac
:10467800a1ccb30080852100014878000080eb00c0
:10468800f0c28800a0032000da0e37000178a300ea
:104698001400320000b621001070a10041af2100c3
:1046a80080852100114878008100e8000000e800ba
:1046b80011487800e6d7800006c388006f004000e4
:1046c800ef80400031187800211078002101900017
:1046d800b10190002200980033009800c004200027
:1046e800c40e37000000eb000138a300c10e3200f1
:1046f8000168a3000700320000b621001060a10085
:1047080011c0b300808521000148780040022000d4
:10471800b80e37000000eb000158a300b50e3a00b0
:1047280070ba210093c1b30090cf11007700320016
:104738000042eb00a4c79f000004780069ce210066
:104748001880fb007200b9004c08b4008042880051
:1047580022c1b3008000780080cd210063390700b2
:10476800012c20009980600000242000808f5000d8
:1047780002003200184ce8000200370010c0b300f5
:10478800a0c79f0018407800f84f500004003e0072
:10479800afc297000504e000e9ff320003003700cc
:1047a8002fc397000604e0006000320071ba2100b0
:1047b8008048e800d88920001844780001ce2100fc
:1047c8006882500008407800a38721000081fb0020
:1047d800c1437800877179000040e900848f500058
:1047e800faff3a00e844540080c0b300a0c79f0015
:1047f800d089200009487800f0f707008984fb0079
:10480800a187210080f07c00694054000080fb00f3
:1048180012c0b300827078006a4054000080fb0028
:1048280092bf2100927078006b4054000080fb001a
:1048380082bf2100927078006c4054000080fb0019
:1048480012ce2100927078006d4054000080fb0069
:1048580002ce2100927078006e4054000080fb0068
:104868000041eb00827078006f4054000080fb002c
:104878000001e800e14179000334a0008370790069
:1048880092c0b30082707800704454008841780068
:10489800d2892000034978009cc8bf000081fb0032
:1048a80043c0b300837079000040e80001c4b3003e
:1048b800a1c79f0001db80000198a300020032001d
:1048c80002ccb300a2c79f0001d8a30003003a009e
:1048d8002fc297000454a000a4c79f008080fb004b
:1048e800a2872100afc2970005f178000040e800d8
:1048f8009ce8b70021fc2f008f80400000e7800073
:10490800edf90700000120003a0e370000b621003b
:104918001090a10060cf21000048eb0002c1b30055
:10492800ec0050007042800024390700002020006d
:1049380001b6210011006000340e320060cf210062
:104948001004e00010003200800420000100400044
:104958007fb397008fbb970030025300a0825b00a3
:1049680082e780008001eb006710b900f62f250070
:104978000611b800830140000000eb00820f5200ce
:10498800838f5a001b0e360000b621001060a0006d
:1049980087c521004803290007000900b85b780093
:1049a800d88920001844780001c621006882500088
:1049b80008407800a38721000081fb00c1427800ed
:1049c800857179000040e900848f5000faff3a00b1
:1049d800e844540080c0b300a0c79f00d6892000d7
:1049e800094b780075f707008984fb00a18721002f
:1049f80080f07c00694054000080fb0012c0b300c6
:104a0800827078006a4054000080fb0092bf210049
:104a1800927078006b4054000080fb0082bf210038
:104a2800927078006c4054000080fb0000c1eb00dd
:104a3800827078006d4054000080fb00c2cfb30044
:104a4800827078006e4154000281fb000040eb0048
:104a5800807079006f4154000281fb008201e800f8
:104a680061c279000444a00084f0790093c0b300c7
:104a7800837079007044540088417800d2892000fe
:104a880003497800c2892000124178008281fb0026
:104a980044c0b30084f079000241e8008242780003
:104aa800c4892000054a7800a0c79f0000db800069
:104ab8000098a3000700320061cf21001104e00034
:104ac80004003a0000a8a3000200320000c8b300a6
:104ad800a0c79f009cc8bf008080fb00a287210060
:104ae8002fc3970006f178000040e8009ce8b70063
:104af80021fc2f008f8040000080eb006ef907003a
:104b080000012000bb0d3700f0fe2f00f1ff2f0041
:104b180000044400e084480017062000870f540072
:104b2800e08f5c00b00d3e000860010061003700b6
:104b3800dc003700ac0d3700ab0d3700aa0d37008d
:104b480011073700a80d370038073700a60d3700c2
:104b5800a50d370090073700bf073700a20d3700b3
:104b6800a10d3700a00d37009f0d37009e0d3700af
:104b7800260837009c0d37009b0d3700300837009a
:104b8800990d3700980d3700970d370073083700d7
:104b980079093700940d3700930d3700920d3700cf
:104ba80087093700900d37008f0d37008e0d3700bd
:104bb8008b0937009a0937008b0d37008a0d3700ab
:104bc800890d3700880d3700870d3700860d3700af
:104bd800850d3700840d3700830d3700820d3700af
:104be800810d3700800d37007f0d3700a20a37008e
:104bf800ee0a3700f20a3700100b3700370b370080
:104c0800ef0b3700080c3700b60c3700ba0c37002a
:104c1800750d3700740d3700730d3700720d3700ae
:104c2800710d3700700d37006f0d37006e0d3700ae
:104c38006d0d37006c0d37006b0d37006a0d3700ae
:104c4800690d3700680d3700670d3700660d3700ae
:104c5800650d3700640d3700630d3700620d3700ae
:104c6800610d3700600d37005f0d37005e0d3700ae
:104c78005d0d37005c0d37005b0d37005a0d3700ae
:104c8800590d3700580d3700570d3700560d3700ae
:104c9800550d3700540d3700530d3700520d3700ae
:104ca800510d3700500d37004f0d37004e0d3700ae
:104cb800a40c370020872100904278007a00500029
:104cc800104378000041eb000240780003b6210051
:104cd8008083eb0001003700004178000080fb0072
:104ce800c200dd006102b000e3807800e18f40007f
:104cf80048003200690240004222dd00048241007f
:104d08001442900084cf520042003a000604e000aa
:104d18003d003200810178008000780003007800af
:104d2800a2c79f00a008a800e9814000c219dd00c1
:104d380008b62100928f210068c97900a3c0b3008a
:104d48000201e9000349780093bf21000201e9004c
:104d5800134978008301e9000201e900134978004a
:104d6800c208dd007202200001014100684179009b
:104d7800538f2100824978006102b000e8c07800b2
:104d88008301e900814978008041eb00348f2100dc
:104d9800034a780095c0b3000402e900054a780088
:104da80076c7b300d5892000864a780035c0b3009d
:104db800a4872100054a78000402e800034a780025
:104dc8008401e800814978008300e800824878007f
:104dd80042c0b300c7892000824b780021fc2f0015
:104de8008f804000b4f80700afc197000380fb0034
:104df8004200dd00000444000080eb0030149800fd
:104e080000012000fb0c37004200dd00008041005b
:104e1800371098000240e800e54f5000aeff36001a
:104e28002087210010417800c0b021008040eb00ad
:104e3800904f1100230d3a000a0037008140e80026
:104e48000080e80083cf5000e90c3200904f110039
:104e5800faff3a000000eb0062c2b30082cf5000b4
:104e6800e40c32008180fb0001804000d2b02100b8
:104e7800624178000040eb000204e00003003200c9
:104e8800208721000248780040c3b3008180400099
:104e9800d2b02100810041008048eb000080fb0077
:104ea800d40c37008bf60700a0ef9f000042780073
:104eb800c4ef9f0087f6070000477800eedf9f00e9
:104ec80084f60700e0e79f000086fb0081f60700f4
:104ed800c0e79f00004378004830dd000c067000f2
:104ee8007cf60700e0ef9f000085fb0079f60700dd
:104ef800804478004848dd000a05700075f6070010
:104f0800a0e79f0073f60700804678008ee79f00b1
:104f18000e0478000838a3000c0032000040eb00b3
:104f2800a0c79f00004478006bbd210069f6070008
:104f38000884fb0080757c00afc097000144e8003e
:104f4800a8c79f00e74f5400f8ff36000fe197000d
:104f58000248a3000c0032008041eb00a3c79f0069
:104f680003447800ebbc21005af607000884fb00d4
:104f780080757c002fc297000444e800a8c79f00f2
:104f8800e74f5400f8ff360040c38000e10f4000af
:104f9800a50c32000c047800e50f4600da02360052
:104fa8008042eb00a5c79f002fc297008a027800b5
:104fb80022b621000040eb000100370000427800d3
:104fc800d20078000100e0000b003200b10190002f
:104fd800838f520008003a00b14090008dcf5000f6
:104fe80005003a00a4c79f00d0f507001d18070068
:104ff8000000eb007f0c37000040e800e74f50004e
:10500800eeff3a00a0c79f004feb97006340630094
:10501800e14f500052023a002ef60700a0c79f0049
:10502800e14f5000a1013a000010200001b6210014
:10503800110060004702320080bf2100900f550028
:1050480003003a00071807000000eb00690c37005e
:1050580010c0b30080cf9f001ef6070090cf9f00be
:105068001cf60700a0cf9f001af60700c0cf9f00cc
:1050780018f60700d0cf9f0016f607008044780086
:105088008940e800e1cf9f00308721001040780078
:1050980072cdb300824f500002003e008140e8000c
:1050a800e1cf9f0031cbb300814f500003003e0099
:1050b800efc897008140e800e1cf9f00f1c8b30036
:1050c800814f500003003e00efc897008140e80080
:1050d800e1cf9f00b1c6b300814f500003003e00ee
:1050e800efc897008140e800e1cf9f0071c4b3008a
:1050f800814f500003003e00efc897008140e80050
:10510800e1cf9f0031c2b300814f500003003e0041
:105118006fc897000040e800e0cf9f001fca9700c3
:10512800efa197000a017800afc8970010c0b3003c
:105138002df507000004e000d100320040c38000d4
:10514800e10f4000ce003a000040eb00e0c79f00ae
:10515800afca97000a0278008040780001407800c2
:1051680063872000040037000040e800e44f500047
:105178000d003200804078000081fb0002014100f0
:10518800630479000800e000f7ff320068499000e6
:10519800854f5100f4ff3a0048019000840f5100f8
:1051a800f1ff3a00230c3700e0c79f0072fc2f0084
:1051b8000f01410061fc2f008f8040006fa0970015
:1051c80048f407000004e0002a003a0026003700ef
